{
	"data": {
		"bytecode": {
			"linkReferences": {},
			"object": "608060405234801561001057600080fd5b506103d4806100206000396000f3fe608060405234801561001057600080fd5b50600436106100365760003560e01c806301c6adc31461003b5780638a4068dd14610057575b600080fd5b61005560048036038101906100509190610236565b610061565b005b61005f610100565b005b6000735b38da6a701c568545dcfcb03fcb875f56beddc490508073ffffffffffffffffffffffffffffffffffffffff166323b872dd3385856040518463ffffffff1660e01b81526004016100b793929190610294565b6020604051808303816000875af11580156100d6573d6000803e3d6000fd5b505050506040513d601f19601f820116820180604052508101906100fa9190610303565b50505050565b6000735b38da6a701c568545dcfcb03fcb875f56beddc490508073ffffffffffffffffffffffffffffffffffffffff1663a9059cbb336107d06040518363ffffffff1660e01b8152600401610156929190610375565b6020604051808303816000875af1158015610175573d6000803e3d6000fd5b505050506040513d601f19601f820116820180604052508101906101999190610303565b5050565b600080fd5b600073ffffffffffffffffffffffffffffffffffffffff82169050919050565b60006101cd826101a2565b9050919050565b6101dd816101c2565b81146101e857600080fd5b50565b6000813590506101fa816101d4565b92915050565b6000819050919050565b61021381610200565b811461021e57600080fd5b50565b6000813590506102308161020a565b92915050565b6000806040838503121561024d5761024c61019d565b5b600061025b858286016101eb565b925050602061026c85828601610221565b9150509250929050565b61027f816101c2565b82525050565b61028e81610200565b82525050565b60006060820190506102a96000830186610276565b6102b66020830185610276565b6102c36040830184610285565b949350505050565b60008115159050919050565b6102e0816102cb565b81146102eb57600080fd5b50565b6000815190506102fd816102d7565b92915050565b6000602082840312156103195761031861019d565b5b6000610327848285016102ee565b91505092915050565b6000819050919050565b6000819050919050565b600061035f61035a61035584610330565b61033a565b610200565b9050919050565b61036f81610344565b82525050565b600060408201905061038a6000830185610276565b6103976020830184610366565b939250505056fea26469706673582212207bcdcba44082db229722c1d5a4e490a2f147ca7a97036066a2a7a1bbe2c4a7e564736f6c63430008110033",
			"opcodes": "PUSH1 0x80 PUSH1 0x40 MSTORE CALLVALUE DUP1 ISZERO PUSH2 0x10 JUMPI PUSH1 0x0 DUP1 REVERT JUMPDEST POP PUSH2 0x3D4 DUP1 PUSH2 0x20 PUSH1 0x0 CODECOPY PUSH1 0x0 RETURN INVALID PUSH1 0x80 PUSH1 0x40 MSTORE CALLVALUE DUP1 ISZERO PUSH2 0x10 JUMPI PUSH1 0x0 DUP1 REVERT JUMPDEST POP PUSH1 0x4 CALLDATASIZE LT PUSH2 0x36 JUMPI PUSH1 0x0 CALLDATALOAD PUSH1 0xE0 SHR DUP1 PUSH4 0x1C6ADC3 EQ PUSH2 0x3B JUMPI DUP1 PUSH4 0x8A4068DD EQ PUSH2 0x57 JUMPI JUMPDEST PUSH1 0x0 DUP1 REVERT JUMPDEST PUSH2 0x55 PUSH1 0x4 DUP1 CALLDATASIZE SUB DUP2 ADD SWAP1 PUSH2 0x50 SWAP2 SWAP1 PUSH2 0x236 JUMP JUMPDEST PUSH2 0x61 JUMP JUMPDEST STOP JUMPDEST PUSH2 0x5F PUSH2 0x100 JUMP JUMPDEST STOP JUMPDEST PUSH1 0x0 PUSH20 0x5B38DA6A701C568545DCFCB03FCB875F56BEDDC4 SWAP1 POP DUP1 PUSH20 0xFFFFFFFFFFFFFFFFFFFFFFFFFFFFFFFFFFFFFFFF AND PUSH4 0x23B872DD CALLER DUP6 DUP6 PUSH1 0x40 MLOAD DUP5 PUSH4 0xFFFFFFFF AND PUSH1 0xE0 SHL DUP2 MSTORE PUSH1 0x4 ADD PUSH2 0xB7 SWAP4 SWAP3 SWAP2 SWAP1 PUSH2 0x294 JUMP JUMPDEST PUSH1 0x20 PUSH1 0x40 MLOAD DUP1 DUP4 SUB DUP2 PUSH1 0x0 DUP8 GAS CALL ISZERO DUP1 ISZERO PUSH2 0xD6 JUMPI RETURNDATASIZE PUSH1 0x0 DUP1 RETURNDATACOPY RETURNDATASIZE PUSH1 0x0 REVERT JUMPDEST POP POP POP POP PUSH1 0x40 MLOAD RETURNDATASIZE PUSH1 0x1F NOT PUSH1 0x1F DUP3 ADD AND DUP3 ADD DUP1 PUSH1 0x40 MSTORE POP DUP2 ADD SWAP1 PUSH2 0xFA SWAP2 SWAP1 PUSH2 0x303 JUMP JUMPDEST POP POP POP POP JUMP JUMPDEST PUSH1 0x0 PUSH20 0x5B38DA6A701C568545DCFCB03FCB875F56BEDDC4 SWAP1 POP DUP1 PUSH20 0xFFFFFFFFFFFFFFFFFFFFFFFFFFFFFFFFFFFFFFFF AND PUSH4 0xA9059CBB CALLER PUSH2 0x7D0 PUSH1 0x40 MLOAD DUP4 PUSH4 0xFFFFFFFF AND PUSH1 0xE0 SHL DUP2 MSTORE PUSH1 0x4 ADD PUSH2 0x156 SWAP3 SWAP2 SWAP1 PUSH2 0x375 JUMP JUMPDEST PUSH1 0x20 PUSH1 0x40 MLOAD DUP1 DUP4 SUB DUP2 PUSH1 0x0 DUP8 GAS CALL ISZERO DUP1 ISZERO PUSH2 0x175 JUMPI RETURNDATASIZE PUSH1 0x0 DUP1 RETURNDATACOPY RETURNDATASIZE PUSH1 0x0 REVERT JUMPDEST POP POP POP POP PUSH1 0x40 MLOAD RETURNDATASIZE PUSH1 0x1F NOT PUSH1 0x1F DUP3 ADD AND DUP3 ADD DUP1 PUSH1 0x40 MSTORE POP DUP2 ADD SWAP1 PUSH2 0x199 SWAP2 SWAP1 PUSH2 0x303 JUMP JUMPDEST POP POP JUMP JUMPDEST PUSH1 0x0 DUP1 REVERT JUMPDEST PUSH1 0x0 PUSH20 0xFFFFFFFFFFFFFFFFFFFFFFFFFFFFFFFFFFFFFFFF DUP3 AND SWAP1 POP SWAP2 SWAP1 POP JUMP JUMPDEST PUSH1 0x0 PUSH2 0x1CD DUP3 PUSH2 0x1A2 JUMP JUMPDEST SWAP1 POP SWAP2 SWAP1 POP JUMP JUMPDEST PUSH2 0x1DD DUP2 PUSH2 0x1C2 JUMP JUMPDEST DUP2 EQ PUSH2 0x1E8 JUMPI PUSH1 0x0 DUP1 REVERT JUMPDEST POP JUMP JUMPDEST PUSH1 0x0 DUP2 CALLDATALOAD SWAP1 POP PUSH2 0x1FA DUP2 PUSH2 0x1D4 JUMP JUMPDEST SWAP3 SWAP2 POP POP JUMP JUMPDEST PUSH1 0x0 DUP2 SWAP1 POP SWAP2 SWAP1 POP JUMP JUMPDEST PUSH2 0x213 DUP2 PUSH2 0x200 JUMP JUMPDEST DUP2 EQ PUSH2 0x21E JUMPI PUSH1 0x0 DUP1 REVERT JUMPDEST POP JUMP JUMPDEST PUSH1 0x0 DUP2 CALLDATALOAD SWAP1 POP PUSH2 0x230 DUP2 PUSH2 0x20A JUMP JUMPDEST SWAP3 SWAP2 POP POP JUMP JUMPDEST PUSH1 0x0 DUP1 PUSH1 0x40 DUP4 DUP6 SUB SLT ISZERO PUSH2 0x24D JUMPI PUSH2 0x24C PUSH2 0x19D JUMP JUMPDEST JUMPDEST PUSH1 0x0 PUSH2 0x25B DUP6 DUP3 DUP7 ADD PUSH2 0x1EB JUMP JUMPDEST SWAP3 POP POP PUSH1 0x20 PUSH2 0x26C DUP6 DUP3 DUP7 ADD PUSH2 0x221 JUMP JUMPDEST SWAP2 POP POP SWAP3 POP SWAP3 SWAP1 POP JUMP JUMPDEST PUSH2 0x27F DUP2 PUSH2 0x1C2 JUMP JUMPDEST DUP3 MSTORE POP POP JUMP JUMPDEST PUSH2 0x28E DUP2 PUSH2 0x200 JUMP JUMPDEST DUP3 MSTORE POP POP JUMP JUMPDEST PUSH1 0x0 PUSH1 0x60 DUP3 ADD SWAP1 POP PUSH2 0x2A9 PUSH1 0x0 DUP4 ADD DUP7 PUSH2 0x276 JUMP JUMPDEST PUSH2 0x2B6 PUSH1 0x20 DUP4 ADD DUP6 PUSH2 0x276 JUMP JUMPDEST PUSH2 0x2C3 PUSH1 0x40 DUP4 ADD DUP5 PUSH2 0x285 JUMP JUMPDEST SWAP5 SWAP4 POP POP POP POP JUMP JUMPDEST PUSH1 0x0 DUP2 ISZERO ISZERO SWAP1 POP SWAP2 SWAP1 POP JUMP JUMPDEST PUSH2 0x2E0 DUP2 PUSH2 0x2CB JUMP JUMPDEST DUP2 EQ PUSH2 0x2EB JUMPI PUSH1 0x0 DUP1 REVERT JUMPDEST POP JUMP JUMPDEST PUSH1 0x0 DUP2 MLOAD SWAP1 POP PUSH2 0x2FD DUP2 PUSH2 0x2D7 JUMP JUMPDEST SWAP3 SWAP2 POP POP JUMP JUMPDEST PUSH1 0x0 PUSH1 0x20 DUP3 DUP5 SUB SLT ISZERO PUSH2 0x319 JUMPI PUSH2 0x318 PUSH2 0x19D JUMP JUMPDEST JUMPDEST PUSH1 0x0 PUSH2 0x327 DUP5 DUP3 DUP6 ADD PUSH2 0x2EE JUMP JUMPDEST SWAP2 POP POP SWAP3 SWAP2 POP POP JUMP JUMPDEST PUSH1 0x0 DUP2 SWAP1 POP SWAP2 SWAP1 POP JUMP JUMPDEST PUSH1 0x0 DUP2 SWAP1 POP SWAP2 SWAP1 POP JUMP JUMPDEST PUSH1 0x0 PUSH2 0x35F PUSH2 0x35A PUSH2 0x355 DUP5 PUSH2 0x330 JUMP JUMPDEST PUSH2 0x33A JUMP JUMPDEST PUSH2 0x200 JUMP JUMPDEST SWAP1 POP SWAP2 SWAP1 POP JUMP JUMPDEST PUSH2 0x36F DUP2 PUSH2 0x344 JUMP JUMPDEST DUP3 MSTORE POP POP JUMP JUMPDEST PUSH1 0x0 PUSH1 0x40 DUP3 ADD SWAP1 POP PUSH2 0x38A PUSH1 0x0 DUP4 ADD DUP6 PUSH2 0x276 JUMP JUMPDEST PUSH2 0x397 PUSH1 0x20 DUP4 ADD DUP5 PUSH2 0x366 JUMP JUMPDEST SWAP4 SWAP3 POP POP POP JUMP INVALID LOG2 PUSH5 0x6970667358 0x22 SLT KECCAK256 PUSH28 0xCDCBA44082DB229722C1D5A4E490A2F147CA7A97036066A2A7A1BBE2 0xC4 0xA7 0xE5 PUSH5 0x736F6C6343 STOP ADDMOD GT STOP CALLER "
		},
		"gasEstimates": {
			"creation": {
				"codeDepositCost": "196000",
				"executionCost": "238",
				"totalCost": "196238"
			},
			"external": {
				"transfer()": "infinite",
				"transferFrom(address,uint256)": "infinite"
			}
		},
		"methodIdentifiers": {
			"transfer()": "8a4068dd",
			"transferFrom(address,uint256)": "01c6adc3"
		}
	},
	"abi": [
		{
			"inputs": [],
			"name": "transfer",
			"outputs": [],
			"stateMutability": "nonpayable",
			"type": "function"
		},
		{
			"inputs": [
				{
					"internalType": "address",
					"name": "recipient",
					"type": "address"
				},
				{
					"internalType": "uint256",
					"name": "amount",
					"type": "uint256"
				}
			],
			"name": "transferFrom",
			"outputs": [],
			"stateMutability": "nonpayable",
			"type": "function"
		}
	]
}